{
  "contractName": "Password",
  "abi": [
    {
      "anonymous": false,
      "inputs": [
        {
          "indexed": false,
          "internalType": "address",
          "name": "user",
          "type": "address"
        },
        {
          "indexed": false,
          "internalType": "uint256",
          "name": "id",
          "type": "uint256"
        }
      ],
      "name": "UserCreated",
      "type": "event"
    },
    {
      "inputs": [
        {
          "internalType": "string",
          "name": "_name",
          "type": "string"
        },
        {
          "internalType": "string",
          "name": "_gmail",
          "type": "string"
        }
      ],
      "name": "setUser",
      "outputs": [],
      "stateMutability": "nonpayable",
      "type": "function"
    },
    {
      "inputs": [
        {
          "internalType": "uint256",
          "name": "_id",
          "type": "uint256"
        }
      ],
      "name": "getUser",
      "outputs": [
        {
          "components": [
            {
              "internalType": "uint256",
              "name": "id",
              "type": "uint256"
            },
            {
              "internalType": "string",
              "name": "name",
              "type": "string"
            },
            {
              "internalType": "string",
              "name": "gmail",
              "type": "string"
            }
          ],
          "internalType": "struct Password.User",
          "name": "",
          "type": "tuple"
        }
      ],
      "stateMutability": "view",
      "type": "function",
      "constant": true
    },
    {
      "inputs": [],
      "name": "getListUser",
      "outputs": [
        {
          "components": [
            {
              "internalType": "uint256",
              "name": "id",
              "type": "uint256"
            },
            {
              "internalType": "string",
              "name": "name",
              "type": "string"
            },
            {
              "internalType": "string",
              "name": "gmail",
              "type": "string"
            }
          ],
          "internalType": "struct Password.User[]",
          "name": "",
          "type": "tuple[]"
        }
      ],
      "stateMutability": "view",
      "type": "function",
      "constant": true
    },
    {
      "inputs": [
        {
          "internalType": "address",
          "name": "_addrowner",
          "type": "address"
        },
        {
          "internalType": "uint256",
          "name": "_id",
          "type": "uint256"
        }
      ],
      "name": "UserData",
      "outputs": [
        {
          "components": [
            {
              "internalType": "uint256",
              "name": "id",
              "type": "uint256"
            },
            {
              "internalType": "string",
              "name": "name",
              "type": "string"
            },
            {
              "internalType": "string",
              "name": "gmail",
              "type": "string"
            }
          ],
          "internalType": "struct Password.User",
          "name": "",
          "type": "tuple"
        }
      ],
      "stateMutability": "view",
      "type": "function",
      "constant": true
    }
  ],
  "bytecode": "0x608060405234801561001057600080fd5b5061172f806100206000396000f3fe608060405234801561001057600080fd5b506004361061004c5760003560e01c80634cf6d85a146100515780635728b973146100815780639a95fdd51461009d578063b0467deb146100bb575b600080fd5b61006b60048036038101906100669190610d19565b6100eb565b6040516100789190610e4f565b60405180910390f35b61009b60048036038101906100969190610fa6565b6102f2565b005b6100a5610736565b6040516100b29190611137565b60405180910390f35b6100d560048036038101906100d09190611159565b6108c3565b6040516100e29190610e4f565b60405180910390f35b6100f3610c50565b8273ffffffffffffffffffffffffffffffffffffffff163373ffffffffffffffffffffffffffffffffffffffff1614610161576040517f08c379a0000000000000000000000000000000000000000000000000000000008152600401610158906111e3565b60405180910390fd5b600360008473ffffffffffffffffffffffffffffffffffffffff1673ffffffffffffffffffffffffffffffffffffffff1681526020019081526020016000206000838152602001908152602001600020604051806060016040529081600082015481526020016001820180546101d690611232565b80601f016020809104026020016040519081016040528092919081815260200182805461020290611232565b801561024f5780601f106102245761010080835404028352916020019161024f565b820191906000526020600020905b81548152906001019060200180831161023257829003601f168201915b5050505050815260200160028201805461026890611232565b80601f016020809104026020016040519081016040528092919081815260200182805461029490611232565b80156102e15780601f106102b6576101008083540402835291602001916102e1565b820191906000526020600020905b8154815290600101906020018083116102c457829003601f168201915b505050505081525050905092915050565b60006001805480602002602001604051908101604052809291908181526020016000905b8282101561047657838290600052602060002090600302016040518060600160405290816000820154815260200160018201805461035390611232565b80601f016020809104026020016040519081016040528092919081815260200182805461037f90611232565b80156103cc5780601f106103a1576101008083540402835291602001916103cc565b820191906000526020600020905b8154815290600101906020018083116103af57829003601f168201915b505050505081526020016002820180546103e590611232565b80601f016020809104026020016040519081016040528092919081815260200182805461041190611232565b801561045e5780601f106104335761010080835404028352916020019161045e565b820191906000526020600020905b81548152906001019060200180831161044157829003601f168201915b50505050508152505081526020019060010190610316565b505050509050600080600090505b8251811015610549578360405160200161049e919061129f565b604051602081830303815290604052805190602001208382815181106104c7576104c66112b6565b5b6020026020010151604001516040516020016104e3919061129f565b6040516020818303038152906040528051906020012003610539576040517f08c379a000000000000000000000000000000000000000000000000000000000815260040161053090611331565b60405180910390fd5b61054281610a2c565b9050610484565b506001604051806060016040528060005481526020018681526020018581525090806001815401808255809150506001900390600052602060002090600302016000909190919091506000820151816000015560208201518160010190816105b191906114fd565b5060408201518160020190816105c791906114fd565b5050506040518060600160405280600054815260200185815260200184815250600260008054815260200190815260200160002060008201518160000155602082015181600101908161061a91906114fd565b50604082015181600201908161063091906114fd565b509050506040518060600160405280600054815260200185815260200184815250600360003373ffffffffffffffffffffffffffffffffffffffff1673ffffffffffffffffffffffffffffffffffffffff1681526020019081526020016000206000805481526020019081526020016000206000820151816000015560208201518160010190816106c191906114fd565b5060408201518160020190816106d791906114fd565b50905050600054905060008081546106ee906115fe565b919050819055507fa27642fccf9a9a0a8a8e31188dfec60a6565c30a20ef3ed1eb3a779a79a36b2e33600054604051610728929190611664565b60405180910390a150505050565b60606001805480602002602001604051908101604052809291908181526020016000905b828210156108ba57838290600052602060002090600302016040518060600160405290816000820154815260200160018201805461079790611232565b80601f01602080910402602001604051908101604052809291908181526020018280546107c390611232565b80156108105780601f106107e557610100808354040283529160200191610810565b820191906000526020600020905b8154815290600101906020018083116107f357829003601f168201915b5050505050815260200160028201805461082990611232565b80601f016020809104026020016040519081016040528092919081815260200182805461085590611232565b80156108a25780601f10610877576101008083540402835291602001916108a2565b820191906000526020600020905b81548152906001019060200180831161088557829003601f168201915b5050505050815250508152602001906001019061075a565b50505050905090565b6108cb610c50565b60006108d683610a39565b9050600260008281526020019081526020016000206040518060600160405290816000820154815260200160018201805461091090611232565b80601f016020809104026020016040519081016040528092919081815260200182805461093c90611232565b80156109895780601f1061095e57610100808354040283529160200191610989565b820191906000526020600020905b81548152906001019060200180831161096c57829003601f168201915b505050505081526020016002820180546109a290611232565b80601f01602080910402602001604051908101604052809291908181526020018280546109ce90611232565b8015610a1b5780601f106109f057610100808354040283529160200191610a1b565b820191906000526020600020905b8154815290600101906020018083116109fe57829003601f168201915b505050505081525050915050919050565b6000600182019050919050565b6000806001805480602002602001604051908101604052809291908181526020016000905b82821015610bbe578382906000526020600020906003020160405180606001604052908160008201548152602001600182018054610a9b90611232565b80601f0160208091040260200160405190810160405280929190818152602001828054610ac790611232565b8015610b145780601f10610ae957610100808354040283529160200191610b14565b820191906000526020600020905b815481529060010190602001808311610af757829003601f168201915b50505050508152602001600282018054610b2d90611232565b80601f0160208091040260200160405190810160405280929190818152602001828054610b5990611232565b8015610ba65780601f10610b7b57610100808354040283529160200191610ba6565b820191906000526020600020905b815481529060010190602001808311610b8957829003601f168201915b50505050508152505081526020019060010190610a5e565b50505050905060005b8151811015610c0f5783828281518110610be457610be36112b6565b5b60200260200101516000015103610bff578092505050610c4b565b610c0881610a2c565b9050610bc7565b506040517f08c379a0000000000000000000000000000000000000000000000000000000008152600401610c42906116d9565b60405180910390fd5b919050565b60405180606001604052806000815260200160608152602001606081525090565b6000604051905090565b600080fd5b600080fd5b600073ffffffffffffffffffffffffffffffffffffffff82169050919050565b6000610cb082610c85565b9050919050565b610cc081610ca5565b8114610ccb57600080fd5b50565b600081359050610cdd81610cb7565b92915050565b6000819050919050565b610cf681610ce3565b8114610d0157600080fd5b50565b600081359050610d1381610ced565b92915050565b60008060408385031215610d3057610d2f610c7b565b5b6000610d3e85828601610cce565b9250506020610d4f85828601610d04565b9150509250929050565b610d6281610ce3565b82525050565b600081519050919050565b600082825260208201905092915050565b60005b83811015610da2578082015181840152602081019050610d87565b60008484015250505050565b6000601f19601f8301169050919050565b6000610dca82610d68565b610dd48185610d73565b9350610de4818560208601610d84565b610ded81610dae565b840191505092915050565b6000606083016000830151610e106000860182610d59565b5060208301518482036020860152610e288282610dbf565b91505060408301518482036040860152610e428282610dbf565b9150508091505092915050565b60006020820190508181036000830152610e698184610df8565b905092915050565b600080fd5b600080fd5b7f4e487b7100000000000000000000000000000000000000000000000000000000600052604160045260246000fd5b610eb382610dae565b810181811067ffffffffffffffff82111715610ed257610ed1610e7b565b5b80604052505050565b6000610ee5610c71565b9050610ef18282610eaa565b919050565b600067ffffffffffffffff821115610f1157610f10610e7b565b5b610f1a82610dae565b9050602081019050919050565b82818337600083830152505050565b6000610f49610f4484610ef6565b610edb565b905082815260208101848484011115610f6557610f64610e76565b5b610f70848285610f27565b509392505050565b600082601f830112610f8d57610f8c610e71565b5b8135610f9d848260208601610f36565b91505092915050565b60008060408385031215610fbd57610fbc610c7b565b5b600083013567ffffffffffffffff811115610fdb57610fda610c80565b5b610fe785828601610f78565b925050602083013567ffffffffffffffff81111561100857611007610c80565b5b61101485828601610f78565b9150509250929050565b600081519050919050565b600082825260208201905092915050565b6000819050602082019050919050565b60006060830160008301516110626000860182610d59565b506020830151848203602086015261107a8282610dbf565b915050604083015184820360408601526110948282610dbf565b9150508091505092915050565b60006110ad838361104a565b905092915050565b6000602082019050919050565b60006110cd8261101e565b6110d78185611029565b9350836020820285016110e98561103a565b8060005b85811015611125578484038952815161110685826110a1565b9450611111836110b5565b925060208a019950506001810190506110ed565b50829750879550505050505092915050565b6000602082019050818103600083015261115181846110c2565b905092915050565b60006020828403121561116f5761116e610c7b565b5b600061117d84828501610d04565b91505092915050565b600082825260208201905092915050565b7f596f7520617265206e6f7420617574686f72697a656421000000000000000000600082015250565b60006111cd601783611186565b91506111d882611197565b602082019050919050565b600060208201905081810360008301526111fc816111c0565b9050919050565b7f4e487b7100000000000000000000000000000000000000000000000000000000600052602260045260246000fd5b6000600282049050600182168061124a57607f821691505b60208210810361125d5761125c611203565b5b50919050565b600081905092915050565b600061127982610d68565b6112838185611263565b9350611293818560208601610d84565b80840191505092915050565b60006112ab828461126e565b915081905092915050565b7f4e487b7100000000000000000000000000000000000000000000000000000000600052603260045260246000fd5b7f5573657220616c72656164792065786973742100000000000000000000000000600082015250565b600061131b601383611186565b9150611326826112e5565b602082019050919050565b6000602082019050818103600083015261134a8161130e565b9050919050565b60008190508160005260206000209050919050565b60006020601f8301049050919050565b600082821b905092915050565b6000600883026113b37fffffffffffffffffffffffffffffffffffffffffffffffffffffffffffffffff82611376565b6113bd8683611376565b95508019841693508086168417925050509392505050565b6000819050919050565b60006113fa6113f56113f084610ce3565b6113d5565b610ce3565b9050919050565b6000819050919050565b611414836113df565b61142861142082611401565b848454611383565b825550505050565b600090565b61143d611430565b61144881848461140b565b505050565b5b8181101561146c57611461600082611435565b60018101905061144e565b5050565b601f8211156114b15761148281611351565b61148b84611366565b8101602085101561149a578190505b6114ae6114a685611366565b83018261144d565b50505b505050565b600082821c905092915050565b60006114d4600019846008026114b6565b1980831691505092915050565b60006114ed83836114c3565b9150826002028217905092915050565b61150682610d68565b67ffffffffffffffff81111561151f5761151e610e7b565b5b6115298254611232565b611534828285611470565b600060209050601f8311600181146115675760008415611555578287015190505b61155f85826114e1565b8655506115c7565b601f19841661157586611351565b60005b8281101561159d57848901518255600182019150602085019450602081019050611578565b868310156115ba57848901516115b6601f8916826114c3565b8355505b6001600288020188555050505b505050505050565b7f4e487b7100000000000000000000000000000000000000000000000000000000600052601160045260246000fd5b600061160982610ce3565b91507fffffffffffffffffffffffffffffffffffffffffffffffffffffffffffffffff820361163b5761163a6115cf565b5b600182019050919050565b61164f81610ca5565b82525050565b61165e81610ce3565b82525050565b60006040820190506116796000830185611646565b6116866020830184611655565b9392505050565b7f5573657220646f6573206e6f7420657869737400000000000000000000000000600082015250565b60006116c3601383611186565b91506116ce8261168d565b602082019050919050565b600060208201905081810360008301526116f2816116b6565b905091905056fea2646970667358221220c121141e1f9b5688f422607753d60c9938d0830a55739f4143b535fbefe384d464736f6c63430008110033",
  "immutableReferences": {},
  "source": "// SPDX-License-Identifier: MIT\npragma solidity ^0.8.4;\n\ncontract Password {\n  \n  uint256 newId; \n\n  //User struct\n  struct User {\n    uint256 id;\n    string name;\n    string gmail;\n  }\n\n  //array type User\n  User[] listUsers;\n\n  //mapping to link password wiht user\n  mapping(uint256 => User) users;\n\n  //mapping password\n  mapping(address => mapping(uint => User)) datausers;\n\n //User created event\n event UserCreated(address user, uint256 id);\n\n  //function aritmetic gas optimization\n  function unsafe_inc(uint x) private pure returns (uint256) {\n    unchecked {\n      return x + 1;\n    }\n  }\n  \n  //Search user in the User list\n  function Search(uint _value) internal view returns(uint256){\n    //gas optimization\n    User[] memory _newlist = listUsers;\n     for(uint256 i = 0; i < _newlist.length; i = unsafe_inc(i)){\n      if(_newlist[i].id == _value){\n        return i;\n      }\n     }\n     revert(\"User does not exist\");\n  }\n\n  //create Users\n  function setUser(string memory _name, string memory _gmail) public {\n    //gas optization\n    User[] memory _newlist = listUsers;\n    uint256 counter;\n    for(uint256 i = 0; i < _newlist.length; i = unsafe_inc(i)){\n      require(keccak256(abi.encodePacked(_newlist[i].gmail)) != keccak256(abi.encodePacked(_gmail)), \"User already exist!\");\n    }\n      //saving users\n      listUsers.push(User(newId, _name, _gmail));\n      users[newId] = User(newId, _name, _gmail);\n      datausers[msg.sender][newId] = User(newId, _name, _gmail);\n      counter = newId;\n      ++newId;\n      \n      emit UserCreated(msg.sender, newId);\n  }\n  \n  //get user function\n  function getUser(uint _id) public view returns(User memory){\n    uint i = Search(_id);\n    return users[i];\n  }\n\n  //get list of user,the user can see his generated id.\n  function getListUser() public view returns(User[] memory){\n    return listUsers;\n  }\n\n  //getting dataUser,the user can see his data using his address and his id\n  function UserData(address _addrowner,uint256 _id) public view returns(User memory){\n      require(msg.sender == _addrowner,\"You are not authorized!\");\n      return datausers[_addrowner][_id];\n  }\n\n}\n",
  "sourcePath": "D:\\cursoSolidity\\Password\\contracts\\Password.sol",
  "compiler": {
    "name": "solc",
    "version": "0.8.17+commit.8df45f5f.Emscripten.clang"
  },
  "schemaVersion": "3.4.10",
  "updatedAt": "2022-10-23T18:42:47.559Z",
  "networkType": "ethereum",
  "devdoc": {
    "kind": "dev",
    "methods": {},
    "version": 1
  },
  "userdoc": {
    "kind": "user",
    "methods": {},
    "version": 1
  }
}